:100000000C9434000C9446010C943E000C943E0079
:100010000C943E000C943E000C943E000C943E0068
:100020000C943E000C943E000C943E000C94500145
:100030000C943E000C943E000C943E000C943E0048
:100040000C943E000C943E000C943E000C943E0038
:100050000C943E000C943E000C943E000C943E0028
:100060000C943E000C943E0011241FBECFEFD8E04C
:10007000DEBFCDBF0E9440000C94CA010C9400006A
:1000800008E00EBF0FEF0DBF00912A00006800933B
:100090002A000091240001600093240000912A00AE
:1000A0000B7F00932A0000912B00046000932B002B
:1000B00002E00093C00000E00093C5000FE8009349
:1000C000C40008E10093C10006E00093C20000E014
:1000D000009380000DE0009381000DE30093890000
:1000E00008E00093880002E000936F0002E00093B4
:1000F000690001E000933D0000E0009300010093DF
:100100000101009303010093040106D167D0B9D027
:1001100001E253D079D087D0789400910401002374
:1001200029F000E0009304010EE247D000910301A2
:10013000002329F000E00093030106D171D033D0F1
:1001400066F73BD0013429F0073589F0003539F1E5
:10015000E4CF10910101112301F701E000930201A6
:1001600000E0009300013AD052D06DD0D6CF10916C
:100170000101112391F60091000103950093000104
:1001800049D061D000910001033039F60EE10093AF
:10019000010100E00093020121D03FD0BECFD4D0B6
:1001A0003FD051D0BACF2091C00027FF04C00091AA
:1001B000C60068940895E89408952091C00025FF32
:1001C000FCCF0093C6004F935F9340E05CE35A95E9
:1001D000F1F74A95D9F75F914F9108950091020187
:1001E000002331F000912B00006800932B0008954C
:1001F00000912B000F7700932B00089505910023A9
:1002000011F0DBDFFBCF0895F3E0E8E6F7CFF3E092
:10021000E0E7F4CFF3E0E5E7F1CFF3E0EDE7EECF91
:10022000F3E0EBE8EBCF63E000912B000068009374
:100230002B0027D000912B000F7700932B0021D0AB
:100240006A9591F708950F934F935F933F930091B1
:1002500025000160009325003AE00CD03A95E9F7BB
:10026000009125000E7F009325003F915F914F91F3
:100270000F91089544E65FEF5A95F1F74A95D9F743
:10028000089538E2F7DF3A95E9F708950F930FB72D
:100290000F9301E0009303010F910FBF0F91189589
:1002A0000F931F930FB70F9301E000930401109178
:1002B0000101112359F01A9510930101C4DF109127
:1002C0000101112319F400E0009300010F910FBF09
:1002D0001F910F911895F999FECF1093410020E0DE
:1002E0002093420020913F00216020933F00009125
:1002F00040000895F999FECF1093410020E020932B
:1003000042000093400020913F00246020933F0072
:10031000226020933F00089510E0DDDF053A61F48C
:1003200011E0D9DF0093020112E0D5DF0093000154
:1003300000E000930101089500E0009302010093A2
:10034000000100930101089505EA10E0D3DF009158
:10035000020111E0CFDF0091000112E0CBDF00913C
:10036000010113E0C7DF089552454144590D0A00C9
:100370004F4B0D0A0057524F4E470D0A004C4F434A
:100380004B4F5554203330730D0A005341564544AA
:080390000D0A0000F894FFCFF4
:00000001FF
