:020000020000FC
:1000000014C00BC00AC009C008C007C006C006C0A3
:1000100004C003C002C001C000C018950F930FB701
:100020000F930F910FBF0F91189508E00EBF0FEFC0
:100030000DBF209A579A3B9A28985F984398529AF6
:10004000539A549A559A5698389839983A985E9A8D
:10005000409A419A429A239A259A229A219A249860
:100060002A9A299A01E50CBDCBD1EAD104D2FFD15D
:1000700040E050E001D2EAEFF6E007D22ED36CD296
:100080002CD328D300E00093050100E00093070182
:100090000093080100930601009300010093010101
:1000A00000930201009303010093040129D1789485
:1000B00000910501003081F0013049F0023041F03B
:1000C000033039F0043031F0053029F0F1CF2FC082
:1000D00054C0A7C0CFC0DFC03FD1882339F1182F4B
:1000E000C6D1ECE1F7E0D1D140E051E0C5D101E06B
:1000F00000930501812F8332C9F08A32B1F020913B
:100100000601E0E0F1E0E20F3327F31F808323953F
:1001100020930601E0E0F1E0E20F3327F31F002710
:1001200000838AE2B0D19AD201C0EAD0C1CF14D103
:10013000882311F193D28332D1F08A32E1F02091F9
:1001400006012430CCF4182FE0E0F1E0E20F332771
:10015000F31F1083239520930601E0E0F1E0E20F06
:100160003327F31F002700838AE28DD105C002E008
:100170000093050101C0C4D09BCF79D1E8E2F7E03C
:1001800084D1A8D2A3D2A0E0B1E0E0EEF6E020E076
:1001900034E0332339F00D911591011709F021E076
:1001A0003A95F7CF0C91002309F021E0222391F436
:1001B0000027009307015BD1E6E3F7E066D140E05A
:1001C00051E05AD1EEE3F7E060D14CD203E0009366
:1001D00005016ECF0091070103950093070147D1F8
:1001E000E8E4F7E052D140E051E046D10091070148
:1001F00003307CF4E4E5F7E048D10091070113E017
:10020000101B812F805D3FD132D267D266D278D069
:100210004FCFE2E6F7E039D133D25FD25ED266D07B
:1002200047CFBBD1882329F5D5D1882311F51FD11C
:10023000ECE9F7E02AD1AAE0B1E0E6EEF6E020E052
:1002400034E0332339F00D911591011709F021E0C5
:100250003A95F7CFECD1222321F404E00093050175
:1002600027CF05D1ECEAF7E010D101D236D235D252
:1002700047D01ECFFCD0EAEBF7E007D15F9A439A54
:10028000FBD12BD22AD229D25F9843980027009322
:10029000070136D00DCF40910901E9D0E2E7F7E040
:1002A000F4D040E051E0E8D0E4E8F7E0EED080910F
:1002B0000901F3D0ECE8F7E0E8D0E7D14DD00091A8
:1002C0000901002329F00A950093090106D2F0CE16
:1002D00000270093080100930701C9D0EEE8F7E07A
:1002E000D4D0C0D1FAD1F6D10BD0E2CE01E0009348
:1002F00008010EE10093090105E00093050108954E
:10030000B6D0EAE0F7E0C1D000910701002381F008
:1003100040E051E0B1D0EAECF7E0B7D0009107013E
:1003200013E0101B812F805DAED0E2EDF7E0ADD081
:1003300000E00093050100270093060100270093C9
:100340000001009301010093020100930301009357
:1003500004015F98439808951F932F933F934F9301
:10036000882710E0143009F442C05A9A5B9A5C9ACC
:100370005D9A103011F45A9809C0113011F45B984D
:1003800005C0123011F45C9801C05D9800000000B7
:10039000000000000000000020E04E9B0BC02395F1
:1003A000309B08C02395319B05C02395329B02C02A
:1003B0001395D8CF312F330F330F320FEAEEF6E01B
:1003C000E30F4427F41F849176D1203019F44E991D
:1003D0000EC0FACF213019F4309909C0F5CF223080
:1003E00019F4319904C0F0CF329901C0EDCF5A9A77
:1003F0005B9A5C9A5D9A4F913F912F911F9108955E
:1004000008E40093B80000E00093B90004E0009312
:10041000BC00089504EA0093BC000091BC0007FFF3
:10042000FCCF089504E90093BC0008958093BB00BD
:1004300004E80093BC000091BC0007FFFCCF0895C6
:100440003DD180E35CD031D180E359D023D180E32A
:1004500056D020D180E253D01DD188E232D08CE03A
:1004600030D081E02ED021D186E02BD0089581E0DC
:1004700028D01BD108950895842F552309F0806456
:1004800080681FD008952CD008958F93859188237C
:1004900011F026D0FBCF8F9108951F932F93182F23
:1004A00020E01A3018F01A502395FBCF222319F0C0
:1004B000822F805D15D0812F805D12D02F911F91EA
:1004C00008958F939F93982F807F88601BD0892FEA
:1004D0008295807F886016D0DDD09F918F9108959E
:1004E0008F939F93982F807F89600CD0892F82955E
:1004F000807F896007D0CED09F918F9108958860CA
:1005000001D008958F93846008D0C4D08F918F93C9
:100510008B7F03D0BFD08F9108958F937BDF8EE4C4
:1005200085DF8F9183DF7EDF08958EBD0DB507FFD8
:10053000FDCF8EB50895880F8E772A98F6DF892F24
:10054000F4DF2A9A0895880F8E7780682A98EDDF65
:1005500080E0EBDF2A9A08952998B0D0299AAED08E
:1005600081E09FE0E8DFAAD08AE29DE8E4DF8BE249
:100570009EE3E1DF8CE290E0DEDF8DE29EE1DBDFF7
:1005800085E190E4D8DF81E19DE3D5DF84E1DBDF25
:100590008360982F84E1CFDF08958DE097E0CBDF73
:1005A00089E096E2C8DF81E09CE0C5DF8DE0CBDF2B
:1005B0008068982F8DE0BFDF4FEF5FEF84E0C3DFEF
:1005C000082F007329F451504040C1F781E008958D
:1005D00080E008958DE090E0AEDF8AE090E8ABDF48
:1005E00089E093E9A8DF89E090E2A5DF81E09CE063
:1005F000A2DF8DE0A8DF8068982F8DE09CDF4FEFB1
:100600005FEF84E0A0DF082F007329F451504040D1
:10061000C1F781E0089524E0AAE0B1E0222329F0A7
:1006200089E091DF8D932A95F9CF80E008958AE0E3
:1006300090E881DF89E090E57EDF89E090E07BDF74
:1006400081E09CE078DF8DE07EDF8068982F8DE090
:1006500072DF31D081E090E06EDF0895289A2ED0CD
:1006600028980895289A2FD029D028980895289A54
:1006700031D02CD028980895289A28D02898089509
:10068000289A2BD02AD028980895289A1CD01BD0BD
:10069000289808950F931F9305E117EC1A95F1F729
:1006A0000A95E1F71F910F910895F4DFF3DFF2DF70
:1006B000F1DFF0DF0895F9DFF8DF08956AE0F5DF94
:1006C0006A95E9F70895FADFF9DF0895FCDFFBDFAB
:1006D000F5DF0895FBDFFADF0895FCDFFBDF089507
:1006E0003132333400006793A90431323341343559
:1006F0003642373839432A30234453797374656D51
:1007000020426F6F74696E67000052454144592E54
:10071000205072657373204B65790000456E7465D7
:10072000722050494E3A0000566572696679696ECA
:10073000672E2E2E000050494E204F4B2100536350
:10074000616E20436172640057726F6E672050497A
:100750004E2100005472696573206C6566743A20FE
:10076000000053595354454D204C4F434B454421B1
:1007700000002121204C4F434B4544204F5554202D
:1007800021210000576169743A20000073004C6F0A
:10079000636B2052656C65617365640052656164CA
:1007A000696E6720436172642E2E2E00556E6B6E4B
:1007B0006F776E2043617264210041434345535378
:1007C000204752414E544544000054726965733AC3
:0807D0002000206C6566740036
:00000001FF
