:020000020000FC
:1000000000C008E00EBF0FEF0DBF3C983D98449A2A
:10001000459A10D09ED02ED044D040E050E045D03C
:10002000ECE5F1E049D040E051E03FD0E8E6F1E016
:1000300043D0FFCF08E40093B80000E00093B9007C
:1000400004E00093BC00089504EA0093BC00009112
:10005000BC0007FFFCCF089504E90093BC0008959D
:100060008093BB0004E80093BC000091BC0007FF34
:10007000FCCF08956ED080E345D065D080E342D0B8
:1000800057D080E33FD054D080E23CD051D088E2BA
:100090001BD08CE019D081E017D055D086E014D069
:1000A000089581E011D04FD00895842F552309F091
:1000B0008064806809D008958F938591882311F01A
:1000C00012D0FBCF8F9108958F939F93982F807FAD
:1000D00088601BD0892F8295807F886016D028D0B9
:1000E0009F918F9108958F939F93982F807F896020
:1000F0000CD0892F8295807F896007D019D09F917D
:100100008F910895886001D008958F93846008D0FE
:100110000FD08F918F938B7F03D00AD08F9108954A
:100120008F9392DF8EE49CDF8F919ADF95DF0895A5
:100130000F931F9305E117EC1A95F1F70A95E1F774
:100140001F910F910895F4DFF3DFF2DFF1DFF0DFAD
:1001500008956AE0F8DF6A95E9F708954C43442072
:1001600054455354204F4B0049324320414444529C
:0601700020307832370058
:00000001FF
