:020000020000FC
:1000000014C00BC00AC009C008C007C006C006C0A3
:1000100004C003C002C001C000C018950F930FB701
:100020000F930F910FBF0F91189508E00EBF0FEFC0
:100030000DBF209A579A3B9A28985F984398529AF6
:10004000539A549A559A5698389839983A985E9A8D
:10005000409A419A429A239A259A229A219A249860
:100060002A9A299A01E50CBDCBD1EAD104D2FFD15D
:1000700040E050E001D2ECE4F7E007D257D36CD275
:1000800055D351D300E00093050100E00093070130
:100090000093080100930601009300010093010101
:1000A00000930201009303010093040129D1789485
:1000B00000910501003081F0013049F0023041F03B
:1000C000033039F0043031F0053029F0F1CF2FC082
:1000D00054C0A7C0CFC0DFC03FD1882339F1182F4B
:1000E000C6D1EEE6F7E0D1D140E051E0C5D101E064
:1000F00000930501812F8332C9F08A32B1F020913B
:100100000601E0E0F1E0E20F3327F31F808323953F
:1001100020930601E0E0F1E0E20F3327F31F002710
:1001200000838AE2B0D1C3D201C0EAD0C1CF14D1DA
:10013000882311F1BCD28332D1F08A32E1F02091D0
:1001400006012430CCF4182FE0E0F1E0E20F332771
:10015000F31F1083239520930601E0E0F1E0E20F06
:100160003327F31F002700838AE28DD105C002E008
:100170000093050101C0C4D09BCF79D1EAE7F7E035
:1001800084D1D1D2CCD2A0E0B1E0E2E3F7E020E02C
:1001900034E0332339F00D911591011709F021E076
:1001A0003A95F7CF0C91002309F021E0222391F436
:1001B0000027009307015BD1E8E8F7E066D140E053
:1001C00051E05AD1E0E9F7E060D175D203E0009345
:1001D00005016ECF0091070103950093070147D1F8
:1001E000EAE9F7E052D140E051E046D10091070141
:1001F00003307CF4E6EAF7E048D10091070113E010
:10020000101B812F805D3FD15BD290D28FD278D0EE
:100210004FCFE4EBF7E039D15CD288D287D266D0F9
:1002200047CFBBD1882329F5EAD1882311F51FD107
:10023000EEEEF7E02AD1AAE0B1E0E8E3F7E020E053
:1002400034E0332339F00D911591011709F021E0C5
:100250003A95F7CF15D2222321F404E0009305014B
:1002600027CF05D1EEEFF7E010D12AD25FD25ED2D0
:1002700047D01ECFFCD0ECE0F8E007D15F9A439A5C
:1002800024D254D253D252D25F984398002700937D
:10029000070136D00DCF40910901E9D0E4ECF7E039
:1002A000F4D040E051E0E8D0E6EDF7E0EED0809108
:1002B0000901F3D0EEEDF7E0E8D010D24DD0009177
:1002C0000901002329F00A95009309012FD2F0CEED
:1002D00000270093080100930701C9D0E0EEF7E082
:1002E000D4D0E9D123D21FD20BD0E2CE01E00093CB
:1002F00008010EE10093090105E00093050108954E
:10030000B6D0ECE5F7E0C1D000910701002381F001
:1003100040E051E0B1D0ECE1F8E0B7D00091070146
:1003200013E0101B812F805DAED0E4E2F8E0ADD089
:1003300000E00093050100270093060100270093C9
:100340000001009301010093020100930301009357
:1003500004015F98439808951F932F933F934F9301
:10036000882710E0143009F442C05A9A5B9A5C9ACC
:100370005D9A103011F45A9809C0113011F45B984D
:1003800005C0123011F45C9801C05D9800000000B7
:10039000000000000000000020E04E9B0BC02395F1
:1003A000309B08C02395319B05C02395329B02C02A
:1003B0001395D8CF312F330F330F320FECE3F7E023
:1003C000E30F4427F41F84919FD1203019F44E99F4
:1003D0000EC0FACF213019F4309909C0F5CF223080
:1003E00019F4319904C0F0CF329901C0EDCF5A9A77
:1003F0005B9A5C9A5D9A4F913F912F911F9108955E
:1004000008E40093B80000E00093B90004E0009312
:10041000BC00089504EA0093BC000091BC0007FFF3
:10042000FCCF089504E90093BC0008958093BB00BD
:1004300004E80093BC000091BC0007FFFCCF0895C6
:1004400066D180E35CD05AD180E359D04CD180E3AF
:1004500056D049D180E253D046D188E232D08CE0E8
:1004600030D081E02ED04AD186E02BD0089581E0B3
:1004700028D044D108950895842F552309F080642D
:1004800080681FD008952CD008958F93859188237C
:1004900011F026D0FBCF8F9108951F932F93182F23
:1004A00020E01A3018F01A502395FBCF222319F0C0
:1004B000822F805D15D0812F805D12D02F911F91EA
:1004C00008958F939F93982F807F88601BD0892FEA
:1004D0008295807F886016D006D19F918F91089574
:1004E0008F939F93982F807F89600CD0892F82955E
:1004F000807F896007D0F7D09F918F9108958860A1
:1005000001D008958F93846008D0EDD08F918F93A0
:100510008B7F03D0E8D08F9108958F937BDF8EE49B
:1005200085DF8F9183DF7EDF08958EBD0DB507FFD8
:10053000FDCF8EB50895880F8E772A98F6DF892F24
:10054000F4DF2A9A0895880F8E7780682A98EDDF65
:1005500080E0EBDF2A9A08952998D9D0299AD7D03C
:1005600081E09FE0E8DFD3D08AE29DE8E4DF8BE220
:100570009EE3E1DF8CE290E0DEDF8DE29EE1DBDFF7
:1005800085E190E4D8DF81E19DE3D5DF84E1DBDF25
:100590008360982F84E1CFDF089581E090E0CBDF86
:1005A00084E09FE7C8DF8AE090E8C5DF8DE097E050
:1005B000C2DF89E096E2BFDF81E09CE0BCDF8DE036
:1005C00097E8B9DF4FEF5FEF84E0BDDF082F00FD54
:1005D00014C005FF01C004C051504040A9F70DC030
:1005E0008DE097E0A8DF86E0AEDF8B7131F48AE022
:1005F000AADF823010F080E0089581E0089581E064
:1006000090E099DF84E09FE796DF8DE090E093DF54
:100610008AE090E890DF89E093E98DDF89E090E25D
:100620008ADF81E09CE087DF8DE08DDF8068982F96
:100630008DE081DF4FEF5FEF84E085DF082F00FD65
:100640001DC005FF01C004C051504040A9F716C0AD
:1006500086E079DF8B7191F48AE075DF853070F088
:1006600024E0AAE0B1E0222329F089E06CDF8D9339
:100670002A95F9CF89E067DF80E0089581E0089549
:100680008AE090E858DF89E090E555DF89E090E066
:1006900052DF81E09CE04FDF8DE055DF8068982FCE
:1006A0008DE049DF31D081E090E045DF0895289A60
:1006B0002ED028980895289A2FD029D028980895C8
:1006C000289A31D02CD028980895289A28D0289894
:1006D0000895289A2BD02AD028980895289A1CD0BB
:1006E0001BD0289808950F931F9305E117EC1A95D6
:1006F000F1F70A95E1F71F910F910895F4DFF3DF09
:10070000F2DFF1DFF0DF0895F9DFF8DF08956AE046
:10071000F5DF6A95E9F70895FADFF9DF0895FCDF60
:10072000FBDFF5DF0895FBDFFADF0895FCDFFBDF79
:1007300008953132333400006793A90431323341D4
:1007400034353642373839432A3023445379737469
:10075000656D20426F6F74696E67000052454144B9
:10076000592E205072657373204B65790000456ED9
:100770007465722050494E3A000056657269667978
:10078000696E672E2E2E000050494E204F4B2100DF
:100790005363616E20436172640057726F6E67200D
:1007A00050494E2100005472696573206C6566746F
:1007B0003A20000053595354454D204C4F434B456C
:1007C000442100002121204C4F434B4544204F55EC
:1007D000542021210000576169743A200000730001
:1007E0004C6F636B2052656C656173656400526584
:1007F0006164696E6720436172642E2E2E00556E0F
:100800006B6E6F776E2043617264210041434345F4
:100810005353204752414E54454400005472696579
:0A082000733A2000206C6566740036
:00000001FF
