:100000000C945E000C940B040C94E4030C94860096
:100010000C9486000C9486000C9486000C94860048
:100020000C9486000C9486000C9486000C94860038
:100030000C9486000C9486000C9486000C94860028
:100040000C949A030C9486000C9458040C9432047B
:100050000C9486000C9486000C9486000C94860008
:100060000C9486000C9486000000000024002700F9
:100070002A0000000000250028002B0004040404CE
:100080000404040402020202020203030303030342
:10009000010204081020408001020408102001021F
:1000A00004081020000000080002010000030407FB
:1000B00000000000000000008A043C0811241FBE5C
:1000C000CFEFD8E0DEBFCDBF22E0A4E1B2E001C0B7
:1000D0001D92AB3DB207E1F712E0A0E0B1E0E0E82D
:1000E000F5E102C005900D92A431B107D9F710E0F7
:1000F000CDE5D0E004C02197FE010E94BB08CC35BD
:10010000D107C9F70E94C5040C94B30A0C940000EF
:1001100090E0FC01EC55FF4F2491FC01E057FF4FAC
:100120003491FC01E458FF4FE491EE23C9F02223FF
:1001300039F0233001F1A8F4213019F1223029F1EE
:10014000F0E0EE0FFF1FEE58FF4FA591B4918FB76F
:10015000F894EC91611126C030953E233C938FBFFB
:1001600008952730A9F02830C9F0243049F780914C
:1001700080008F7D03C0809180008F778093800006
:10018000DFCF84B58F7784BDDBCF84B58F7DFBCF88
:100190008091B0008F778093B000D2CF8091B00073
:1001A0008F7DF9CF3E2BDACFCF93DF9390E0FC0128
:1001B000E057FF4F249184589F4FFC01849188237E
:1001C000D1F090E0880F991FFC01E859FF4FA591ED
:1001D000B491FC01EE58FF4FC591D491623071F497
:1001E0009FB7F8943C91822F809583238C93E8816C
:1001F0002E2B28839FBFDF91CF9108958FB7F8945E
:10020000EC912E2B2C938FBFF6CF3FB7F8948091B3
:100210002B0290912C02A0912D02B0912E0226B5B6
:10022000A89B05C02F3F19F00196A11DB11D3FBF2E
:10023000BA2FA92F982F8827BC01CD01620F711DFD
:10024000811D911D42E0660F771F881F991F4A95F7
:10025000D1F708958F929F92AF92BF92CF92DF9283
:10026000EF92FF926B017C010E9405014B015C0142
:10027000C114D104E104F104B9F00E940501681928
:1002800079098A099B09683E73408105910580F3CD
:1002900021E0C21AD108E108F10888EE880E83E057
:1002A000981EA11CB11CE4CFFF90EF90DF90CF907F
:1002B000BF90AF909F908F90089581E0809314023B
:1002C00008950895AF92BF92CF92DF92EF92FF927E
:1002D0000F931F93CF93DF936C017B018B01040F6E
:1002E000151FEB015E01AE18BF08C017D10759F00A
:1002F0006991D601ED91FC910190F081E02DC6014C
:100300000995892B79F7C501DF91CF911F910F9145
:10031000FF90EF90DF90CF90BF90AF900895FC01D9
:10032000538D448D252F30E0842F90E0821B930B5A
:10033000541710F0CF96089501970895FC01918D00
:10034000828D981761F0A28DAE0FBF2FB11D5D9603
:100350008C91928D9F5F9F73928F90E008958FEFA5
:100360009FEF0895FC01918D828D981731F0828D59
:10037000E80FF11D858D90E008958FEF9FEF0895B0
:10038000FC01918D228D892F90E0805C9F4F821B14
:1003900091098F739927089584E392E00E94C00128
:1003A00021E0892B09F420E0822F089580E090E07D
:1003B000892B29F00E94CC0181110C940000089532
:1003C000FC01A48DA80FB92FB11DA35ABF4F2C91CA
:1003D000848D90E001968F739927848FA689B789C1
:1003E0002C93A089B1898C91837080648C93938DB8
:1003F000848D981306C00288F389E02D80818F7D5B
:1004000080830895EF92FF920F931F93CF93DF9312
:10041000EC0181E0888F9B8D8C8D98131AC0E88940
:10042000F989808185FF15C09FB7F894EE89FF890F
:100430006083E889F98980818370806480839FBFAD
:1004400081E090E0DF91CF911F910F91FF90EF90AD
:100450000895F62E0B8D10E00F5F1F4F0F731127BD
:10046000E02E8C8D8E110CC00FB607FCFACFE889F8
:10047000F989808185FFF5CFCE010E94E001F1CF9F
:10048000EB8DEC0FFD2FF11DE35AFF4FF0829FB76C
:10049000F8940B8FEA89FB8980818062CFCFCF935C
:1004A000DF93EC01888D8823B9F0AA89BB89E8899C
:1004B000F9898C9185FD03C0808186FD0DC00FB642
:1004C00007FCF7CF8C9185FFF2CF808185FFEDCFC0
:1004D000CE010E94E001E9CFDF91CF91089560E065
:1004E00087E00E94880060E08DE00C948800809195
:1004F0003002882341F061E087E00E94880061E0DB
:100500008DE00C9488000C946F02CF93DF93EC0184
:1005100061E088E00E948800BE0190E080E00E94D7
:100520002A0160E088E0DF91CF910C948800FC0103
:1005300001900020E9F73197AF01481B590BBC012E
:1005400084E392E00C9462018F929F92AF92BF92EB
:100550000F931F93CF93DF93CDB7DEB7A1970FB65D
:10056000F894DEBF0FBECDBF19A2423008F44AE0B6
:100570008E010F5D1F4F842E912CB12CA12CA50153
:1005800094010E949908E62FB901CA01EA30F4F4F7
:10059000E05DD801EE938D01232B242B252B79F7D9
:1005A00090E080E0109719F0CD010E949702A1968B
:1005B0000FB6F894DEBF0FBECDBFDF91CF911F9174
:1005C0000F91BF90AF909F908F900895E95CE1CF1D
:1005D000CF93DF930E949702EC018CE191E00E949F
:1005E00097028C0F9D1FDF91CF910895DF92EF92BC
:1005F000FF920F931F93CF93DF937C018C01D0E088
:10060000C0E0F801D1908F01CE010E944C08D816AD
:1006100021F06D2DCE010E9454082196C530D105E0
:1006200081F7C701DF91CF911F910F91FF90EF905C
:10063000DF900895CF93DF9300D000D01F92CDB705
:10064000DEB785E0EFE2F2E0DE01119601900D9257
:100650008A95E1F795EA99838A812B8182278927F8
:100660009C8189278D83CE0101960E94F6020F900E
:100670000F900F900F900F90DF91CF910895FC0194
:1006800080819181009711F00C945D0908950F937A
:100690001F93CF93DF93EC0188819981009759F0E4
:1006A0002A813B812617370730F081E0DF91CF9117
:1006B0001F910F9108958B016F5F7F4F0E94E60994
:1006C000009759F0998388831B830A832C813D818D
:1006D000232B59F7FC011082E8CF80E0E7CFEF929F
:1006E000FF920F931F93CF93DF93EC017B018A015D
:1006F000BA010E94470328813981811114C0211554
:10070000310519F0C9010E945D09198218821D8204
:100710001C821B821A82CE01DF91CF911F910F9113
:10072000FF90EF9008951D830C83B701C9010E94CB
:10073000AC0AF1CF1F920F920FB60F9211242F9394
:100740003F938F939F93AF93BF9380912702909194
:100750002802A0912902B0912A023091260223E0BA
:10076000230F2D3758F50196A11DB11D20932602A8
:100770008093270290932802A0932902B0932A0223
:1007800080912B0290912C02A0912D02B0912E020B
:100790000196A11DB11D80932B0290932C02A09372
:1007A0002D02B0932E02BF91AF919F918F913F91F7
:1007B0002F910F900FBE0F901F90189526E8230FD2
:1007C0000296A11DB11DD2CF1F920F920FB60F92AC
:1007D00011242F933F934F935F936F937F938F9346
:1007E0009F93AF93BF93EF93FF93E0910201F0913A
:1007F00003010995FF91EF91BF91AF919F918F9167
:100800007F916F915F914F913F912F910F900FBE0C
:100810000F901F9018951F920F920FB60F921124F0
:100820002F933F934F935F936F937F938F939F93F8
:10083000AF93BF93EF93FF93E0910001F09101011B
:100840000995FF91EF91BF91AF919F918F917F910A
:100850006F915F914F913F912F910F900FBE0F902D
:100860001F9018951F920F920FB60F9211242F937D
:100870003F934F935F936F937F938F939F93AF9328
:10088000BF93EF93FF9384E392E00E94E001FF9116
:10089000EF91BF91AF919F918F917F916F915F91F8
:1008A0004F913F912F910F900FBE0F901F90189571
:1008B0001F920F920FB60F9211242F938F939F9335
:1008C000EF93FF93E0914402F09145028081E09123
:1008D0004A02F0914B0282FD1BC0908180914D0233
:1008E0008F5F8F7320914E02821741F0E0914D028D
:1008F000F0E0EC5CFD4F958F80934D02FF91EF91FE
:100900009F918F912F910F900FBE0F901F90189570
:100910008081F4CFE4E3F2E01382128288EE93E068
:10092000A0E0B0E084839583A683B7838EE091E056
:100930009183808385EC90E09587848784EC90E0B8
:100940009787868780EC90E0918B808B81EC90E09C
:10095000938B828B82EC90E0958B848B86EC90E07D
:10096000978B868B118E128E138E148EE1EDF2E032
:1009700011821082138212821582148250E040E0AC
:100980006EE171E0CF010C946F03CF93DF93CDB78D
:10099000DEB76A970FB6F894DEBF0FBECDBF78946E
:1009A00084B5826084BD84B5816084BD85B5826074
:1009B00085BD85B5816085BD80916E008160809325
:1009C0006E0010928100809181008260809381008E
:1009D000809181008160809381008091800081609E
:1009E000809380008091B10084608093B1008091F9
:1009F000B00081608093B00080917A008460809321
:100A00007A0080917A00826080937A0080917A00E7
:100A1000816080937A0080917A00806880937A0068
:100A20001092C100E0914402F091450282E080837F
:100A3000E0914002F09141021082E0914202F09177
:100A4000430280E1808310924C02E0914802F091D1
:100A5000490286E08083E0914602F091470280815E
:100A600080618083E0914602F09147028081886036
:100A70008083E0914602F091470280818068808304
:100A8000E0914602F091470280818F7D808361E092
:100A900087E00E94D40061E088E00E94D40061E019
:100AA0008DE00E94D4000E946F0262E082E00E940A
:100AB000D4008DE591E09093010180930001809135
:100AC00069008C7F826080936900E89A8FE291E0F0
:100AD0000E94E802CE0101967C0185E0F7011192A7
:100AE0008A95E9F7670110E000E0C8010E944C0810
:100AF000F60181936F010F5F1F4F05301105A9F7B4
:100B00009981953A09F46FC185EA89831A821B821B
:100B10001C828D83C7010E94F60285E0F701DE0189
:100B2000519601900D928A95E1F785E0FE0171964C
:100B3000DE01569601900D928A95E1F785E0FE015F
:100B40007696AFE2B2E001900D928A95E1F70E94AD
:100B5000770288E591E00E9497026091300270E090
:100B600090E080E04AE00E94A40283E791E00E94C6
:100B700097026091310270E090E080E04AE00E94CC
:100B8000A40283E891E00E9497026091320270E033
:100B900090E080E04AE00E94A4028CE191E00E9493
:100BA00097022FB7F8948091270290912802A09184
:100BB0002902B0912A022FBF809322029093230230
:100BC000A0932402B093250220E0222E20E0322EB2
:100BD00034E0632E712C44244394F89480911402E1
:100BE000109214027894882351F084E991E00E94D5
:100BF000E8020E941A0386E990E00E9485028FB7FE
:100C0000F894409127025091280260912902709136
:100C10002A028FBF8091220290912302A091240288
:100C2000B0912502481B590B6A0B7B0B483E534081
:100C30006105710518F188519C4FAF4FBF4F8093EC
:100C4000220290932302A0932402B0932502809164
:100C50003202882399F081508093320288E290E03A
:100C60000E94850280913202811108C010923102E7
:100C70008AEB91E00E94E8020E941A035090210240
:100C8000511096C084E392E00E94C0011816190624
:100C90000CF0E6C184E392E00E949E018D3019F0D1
:100CA0008A3009F0FFC01C861B861E861D86188AA6
:100CB0001F866091D1027091D2026115710541F0D9
:100CC0004091D5025091D602CE010B960E946F033F
:100CD00050E040E06EE171E081ED92E00E946F0330
:100CE000AB84BC84A114B10439F00F851889650167
:100CF0000115110509F087C0CF84D888C114D1042B
:100D000009F4B7C0AB85BC8550E040E02FEF3FEF62
:100D100070E060E080E0109729F0CD01860F971F0A
:100D2000FC018081082E000C990B8C0100531109E5
:100D30000A30110508F0A2C0C80197FD16C02F3F68
:100D4000320709F4ADC04A30510558F58701040F48
:100D5000151F94E0220F331F9A95E1F7282BF80115
:100D600020834F5F5F4F2FEF3FEF6F5F7F4FC616C0
:100D7000D70681F644305105A0F0709220026092AF
:100D80001F028981809315028A81809316028B81CC
:100D9000809317028C81809318024092210255247F
:100DA0005394CE010B960E943F03552009F458C17D
:100DB00080912102882309F453C100911F021091F0
:100DC00020020A30110510F00AE010E0D701E5E139
:100DD000F2E0CF01855192408017910708F093C04F
:100DE00081918D93F6CF8A812B81822789272C814F
:100DF00082272D81281709F490CE1A821B821C822B
:100E00009D8388CE640146012FEF821A920AF60173
:100E10008081082E000C990B0E944008892B91F7C5
:100E2000015011090A0D1B1DF8018081082E000CCC
:100E3000990B0E944008892B31F00C151D0518F004
:100E400001501109F1CF0F5F1F4FA8014C195D0927
:100E5000588B4F87AC14BD0420F4B601C5010E9425
:100E6000A30AEB85FC858F859889E80FF91F10820E
:100E700043CFCE010B960E943F0304CF8C01015655
:100E800011090630110518F48755910956CF8C01C8
:100E9000015411090630110508F067CFC7974DCFEF
:100EA0009C0163CF89831A820091D5021091D602EA
:100EB0000F5F1F4FB80181ED92E00E944703882326
:100EC00089F02091D1023091D2028091D502909187
:100ED000D602B701820F931F0E94AC0A1093D6026C
:100EE0000093D5028091D5029091D602813491056C
:100EF00008F4C8CE50E040E06EE171E081ED92E090
:100F00000E946F03BFCE109221020115110509F452
:100F1000A7C088EC91E00E949702B80190E080E0C1
:100F20004AE00E94A4028EEC91E00E9497026701C1
:100F3000F601B1906F01FFE0FB1528F060E384E358
:100F400092E00E9402026B2D70E090E080E040E1B0
:100F50000E94A402C6018E199F098017910708F00C
:100F600068C06AE384E392E00E940202E1CF0430A9
:100F7000110569F589818E3D51F58A818D3A39F5E2
:100F80008B818E3B21F58C818F3E09F581E090911C
:100F90003002911180E080933002109231020E9461
:100FA00077020E941A038091300281110DC088E2FD
:100FB00091E00E94E8028CE390E00E9485026AEFD3
:100FC00070E080E090E04AC08FE191E0F2CF809144
:100FD00031028F5F8093310281EF91E00E9497028E
:100FE0006091310270E090E080E04AE00E94A4024B
:100FF0008CE191E00E94970288E790E00E948502D0
:1010000080913102833090F0109230022EE12093D3
:1010100032020E9477020E941A0380E092E00E944E
:10102000E8026CE271E080E090E018C00E941A03D0
:10103000F8CF8CE191E00E949702809132028823E0
:1010400009F495CF88ED91E00E94E80280E590E0F8
:101050000E94850268EC70E080E090E00E942A0126
:101060002114310409F4B9CD0E94CC01882309F47C
:10107000B2CD0E940000AFCD81ED92E00C943F0311
:1010800091110C944908803219F089508550C8F7A5
:101090000895992788270895F999FECF92BD81BDBB
:1010A000F89A992780B50895262FF999FECF1FBA8F
:1010B00092BD81BD20BD0FB6F894FA9AF99A0FBE81
:1010C000019608952F923F924F925F926F927F9276
:1010D0008F929F92AF92BF92CF92DF92EF92FF9248
:1010E0000F931F93CF93DF93CDB7DEB7CA1BDB0BF4
:1010F0000FB6F894DEBF0FBECDBF09942A88398899
:1011000048885F846E847D848C849B84AA84B9849F
:10111000C884DF80EE80FD800C811B81AA81B981AB
:10112000CE0FD11D0FB6F894DEBF0FBECDBFED01BF
:101130000895A1E21A2EAA1BBB1BFD010DC0AA1F18
:10114000BB1FEE1FFF1FA217B307E407F50720F030
:10115000A21BB30BE40BF50B661F771F881F991FAB
:101160001A9469F760957095809590959B01AC01F4
:10117000BD01CF010895EE0FFF1F0590F491E02D02
:1011800009940F931F93CF93DF938230910510F44E
:1011900082E090E0E091D902F091DA0230E020E0C4
:1011A000B0E0A0E0309799F42115310509F44AC068
:1011B000281B390B24303105D8F58A819B816115B4
:1011C000710589F1FB0193838283FE0111C0408187
:1011D00051810281138148175907E0F048175907D8
:1011E00099F4109761F012960C93129713961C9332
:1011F0003296CF01DF91CF911F910F910895009307
:10120000D9021093DA02F4CF2115310551F04217BB
:10121000530738F0A901DB019A01BD01DF01F80194
:10122000C1CFEF01F9CF9093DA028093D902CDCFED
:10123000FE01E20FF31F819391932250310939830C
:101240002883D7CF2091D7023091D802232B41F4A5
:1012500020910601309107013093D8022093D702E4
:1012600020910401309105012115310541F42DB77C
:101270003EB74091080150910901241B350BE091C4
:10128000D702F091D802E217F307A0F42E1B3F0B10
:101290002817390778F0AC014E5F5F4F24173507E8
:1012A00048F04E0F5F1F5093D8024093D7028193AE
:1012B00091939FCFF0E0E0E09CCFCF93DF93009736
:1012C000E9F0FC01329713821282A091D902B09109
:1012D000DA02ED0130E020E01097A1F420813181A5
:1012E000820F931F2091D7023091D8022817390717
:1012F00009F061C0F093D802E093D702DF91CF915B
:101300000895EA01CE17DF07E8F54A815B819E0167
:1013100041155105B1F7E901FB83EA8349915991E0
:10132000C40FD51FEC17FD0761F4808191810296EF
:10133000840F951FE90199838883828193819B8320
:101340008A83F0E0E0E012968D919C9113970097CC
:10135000B9F52D913C911197CD010296820F931F03
:101360002091D7023091D8022817390739F63097E3
:1013700051F51092DA021092D902B093D802A093DC
:10138000D702BCCFD383C28340815181840F951F84
:10139000C817D90761F44E5F5F4F88819981480F64
:1013A000591F518340838A819B81938382832115B6
:1013B000310509F0B0CFF093DA02E093D9029ECF65
:1013C000FD01DC01C0CF13821282D7CFB0E0A0E0D4
:1013D000ECEEF9E00C9464088C01009751F4CB0119
:1013E0000E94C1088C01C801CDB7DEB7E0E10C94C2
:1013F0008008FC01E60FF71F9C0122503109E2171B
:10140000F30708F49DC0D901CD91DC911197C6175F
:10141000D70798F0C530D10530F3CE010497861771
:10142000970708F3C61BD70B2297C193D1936D93EF
:101430007C93CF010E945D09D6CF5B01AC1ABD0A37
:101440004C018C0E9D1EA091D902B091DA02512C54
:10145000412CF12CE12C109731F58091D70290911D
:10146000D8028815990509F05CC04616570608F0A1
:1014700058C08091040190910501009741F48DB707
:101480009EB74091080150910901841B950BE81704
:10149000F90708F055C0F093D802E093D702F9019C
:1014A00071836083A0CF8D919C91119712966C905F
:1014B000129713967C901397A815B90559F56C01EE
:1014C00042E0C40ED11CCA14DB0420F1AC014A195D
:1014D0005B09DA011296159780F06282738251835C
:1014E0004083D9016D937C93E114F10471F0D7012D
:1014F0001396FC93EE93129776CF22968C0F9D1F36
:10150000F90191838083F301EFCFF093DA02E09346
:10151000D90269CF4816590608F42C017D01D30180
:101520009ACFCB010E94C1087C01009749F0AE011F
:10153000B8010E94A30AC8010E945D09870153CF28
:1015400010E000E050CFFB01DC0102C001900D92E1
:1015500041505040D8F70895FB01DC0101900D92F5
:101560000020E1F7089510E0CDE5D0E004C0FE01D1
:101570000E94BB082196CE35D107C9F7F894FFCF5A
:10158000610161010000DB02800000000000020236
:1015900062018F014F02C0019E01B2010D0A005588
:1015A0006E6C6F636B6564004C6F636B65640052B7
:1015B0004649442073696D206D6F64653A207479E3
:1015C000706520554944206C696B652030343A4180
:1015D000423A31303A394600526573746F7265642D
:1015E0002073746174653A206C6F636B537461741B
:1015F000653D002077726F6E67417474656D70741D
:10160000733D00206C6F636B6F75745365636F6E11
:1016100064733D00506F7765722D6661696C20655B
:1016200076656E743A20736176696E672045455021
:10163000524F4D207374617465004C6F636B6F750E
:101640007420656E6465640055494420280020625A
:1016500079746573293A200049676E6F726564205A
:10166000286C6F636B6F757420616374697665298C
:101670000057726F6E6720617474656D707420001E
:101680004C4F434B4F5554203330207365636F6E7E
:04169000647300007F
:107E0000112484B714BE81FFF0D085E080938100F7
:107E100082E08093C00088E18093C10086E0809377
:107E2000C20080E18093C4008EE0C9D0259A86E02C
:107E300020E33CEF91E0309385002093840096BBD3
:107E4000B09BFECF1D9AA8958150A9F7CC24DD24C4
:107E500088248394B5E0AB2EA1E19A2EF3E0BF2EE7
:107E6000A2D0813461F49FD0082FAFD0023811F036
:107E7000013811F484E001C083E08DD089C08234E0
:107E800011F484E103C0853419F485E0A6D080C0E4
:107E9000853579F488D0E82EFF2485D0082F10E0AE
:107EA000102F00270E291F29000F111F8ED06801E7
:107EB0006FC0863521F484E090D080E0DECF843638
:107EC00009F040C070D06FD0082F6DD080E0C81688
:107ED00080E7D80618F4F601B7BEE895C0E0D1E017
:107EE00062D089930C17E1F7F0E0CF16F0E7DF06D8
:107EF00018F0F601B7BEE89568D007B600FCFDCFD4
:107F0000A601A0E0B1E02C9130E011968C91119780
:107F100090E0982F8827822B932B1296FA010C0160
:107F200087BEE89511244E5F5F4FF1E0A038BF0790
:107F300051F7F601A7BEE89507B600FCFDCF97BE46
:107F4000E89526C08437B1F42ED02DD0F82E2BD052
:107F50003CD0F601EF2C8F010F5F1F4F84911BD097
:107F6000EA94F801C1F70894C11CD11CFA94CF0C13
:107F7000D11C0EC0853739F428D08EE10CD085E9AC
:107F80000AD08FE07ACF813511F488E018D01DD067
:107F900080E101D065CF982F8091C00085FFFCCF94
:107FA0009093C60008958091C00087FFFCCF809118
:107FB000C00084FD01C0A8958091C6000895E0E648
:107FC000F0E098E1908380830895EDDF803219F02E
:107FD00088E0F5DFFFCF84E1DECF1F93182FE3DFCA
:107FE0001150E9F7F2DF1F91089580E0E8DFEE27F6
:047FF000FF270994CA
:027FFE00040479
:0400000300007E007B
:00000001FF
